{
  "_format": "hh-sol-artifact-1",
  "contractName": "ERC721HCollection",
  "sourceName": "contracts/ERC721HCollection.sol",
  "abi": [
    {
      "inputs": [],
      "stateMutability": "nonpayable",
      "type": "constructor"
    },
    {
      "anonymous": false,
      "inputs": [
        {
          "indexed": true,
          "internalType": "address",
          "name": "owner",
          "type": "address"
        },
        {
          "indexed": true,
          "internalType": "address",
          "name": "approved",
          "type": "address"
        },
        {
          "indexed": true,
          "internalType": "uint256",
          "name": "tokenId",
          "type": "uint256"
        }
      ],
      "name": "Approval",
      "type": "event"
    },
    {
      "anonymous": false,
      "inputs": [
        {
          "indexed": true,
          "internalType": "address",
          "name": "owner",
          "type": "address"
        },
        {
          "indexed": true,
          "internalType": "address",
          "name": "operator",
          "type": "address"
        },
        {
          "indexed": false,
          "internalType": "bool",
          "name": "approved",
          "type": "bool"
        }
      ],
      "name": "ApprovalForAll",
      "type": "event"
    },
    {
      "anonymous": false,
      "inputs": [
        {
          "indexed": true,
          "internalType": "address",
          "name": "previousOwner",
          "type": "address"
        },
        {
          "indexed": true,
          "internalType": "address",
          "name": "newOwner",
          "type": "address"
        }
      ],
      "name": "OwnershipTransferred",
      "type": "event"
    },
    {
      "anonymous": false,
      "inputs": [
        {
          "indexed": false,
          "internalType": "uint256",
          "name": "tokenId",
          "type": "uint256"
        },
        {
          "indexed": false,
          "internalType": "address",
          "name": "slotManagerAddr",
          "type": "address"
        }
      ],
      "name": "SlotAuthorizationCreated",
      "type": "event"
    },
    {
      "anonymous": false,
      "inputs": [
        {
          "indexed": false,
          "internalType": "uint256",
          "name": "tokenId",
          "type": "uint256"
        },
        {
          "indexed": false,
          "internalType": "address",
          "name": "slotManagerAddr",
          "type": "address"
        }
      ],
      "name": "SlotAuthorizationRevoked",
      "type": "event"
    },
    {
      "anonymous": false,
      "inputs": [
        {
          "indexed": false,
          "internalType": "uint256",
          "name": "tokenId",
          "type": "uint256"
        },
        {
          "indexed": false,
          "internalType": "address",
          "name": "slotManagerAddr",
          "type": "address"
        },
        {
          "indexed": false,
          "internalType": "string",
          "name": "uri",
          "type": "string"
        }
      ],
      "name": "SlotUriUpdated",
      "type": "event"
    },
    {
      "anonymous": false,
      "inputs": [
        {
          "indexed": true,
          "internalType": "address",
          "name": "from",
          "type": "address"
        },
        {
          "indexed": true,
          "internalType": "address",
          "name": "to",
          "type": "address"
        },
        {
          "indexed": true,
          "internalType": "uint256",
          "name": "tokenId",
          "type": "uint256"
        }
      ],
      "name": "Transfer",
      "type": "event"
    },
    {
      "inputs": [
        {
          "internalType": "address",
          "name": "to",
          "type": "address"
        },
        {
          "internalType": "uint256",
          "name": "tokenId",
          "type": "uint256"
        }
      ],
      "name": "approve",
      "outputs": [],
      "stateMutability": "nonpayable",
      "type": "function"
    },
    {
      "inputs": [
        {
          "internalType": "uint256",
          "name": "tokenId",
          "type": "uint256"
        },
        {
          "internalType": "address",
          "name": "slotManagerAddr",
          "type": "address"
        }
      ],
      "name": "authorizeSlotTo",
      "outputs": [],
      "stateMutability": "nonpayable",
      "type": "function"
    },
    {
      "inputs": [
        {
          "internalType": "address",
          "name": "owner",
          "type": "address"
        }
      ],
      "name": "balanceOf",
      "outputs": [
        {
          "internalType": "uint256",
          "name": "",
          "type": "uint256"
        }
      ],
      "stateMutability": "view",
      "type": "function"
    },
    {
      "inputs": [
        {
          "internalType": "uint256",
          "name": "tokenId",
          "type": "uint256"
        }
      ],
      "name": "getApproved",
      "outputs": [
        {
          "internalType": "address",
          "name": "",
          "type": "address"
        }
      ],
      "stateMutability": "view",
      "type": "function"
    },
    {
      "inputs": [
        {
          "internalType": "uint256",
          "name": "tokenId",
          "type": "uint256"
        }
      ],
      "name": "getSlotManagers",
      "outputs": [
        {
          "internalType": "address[]",
          "name": "",
          "type": "address[]"
        }
      ],
      "stateMutability": "view",
      "type": "function"
    },
    {
      "inputs": [
        {
          "internalType": "uint256",
          "name": "tokenId",
          "type": "uint256"
        },
        {
          "internalType": "address",
          "name": "slotManagerAddr",
          "type": "address"
        }
      ],
      "name": "getSlotUri",
      "outputs": [
        {
          "internalType": "string",
          "name": "",
          "type": "string"
        }
      ],
      "stateMutability": "view",
      "type": "function"
    },
    {
      "inputs": [
        {
          "internalType": "address",
          "name": "owner",
          "type": "address"
        },
        {
          "internalType": "address",
          "name": "operator",
          "type": "address"
        }
      ],
      "name": "isApprovedForAll",
      "outputs": [
        {
          "internalType": "bool",
          "name": "",
          "type": "bool"
        }
      ],
      "stateMutability": "view",
      "type": "function"
    },
    {
      "inputs": [
        {
          "internalType": "uint256",
          "name": "tokenId",
          "type": "uint256"
        },
        {
          "internalType": "address",
          "name": "addr",
          "type": "address"
        }
      ],
      "name": "isSlotManager",
      "outputs": [
        {
          "internalType": "bool",
          "name": "",
          "type": "bool"
        }
      ],
      "stateMutability": "view",
      "type": "function"
    },
    {
      "inputs": [
        {
          "internalType": "string",
          "name": "imageUri",
          "type": "string"
        }
      ],
      "name": "mint",
      "outputs": [],
      "stateMutability": "nonpayable",
      "type": "function"
    },
    {
      "inputs": [
        {
          "internalType": "string",
          "name": "imageUri",
          "type": "string"
        },
        {
          "internalType": "address",
          "name": "slotManagerAddr",
          "type": "address"
        }
      ],
      "name": "mintAndAuthorizeTo",
      "outputs": [],
      "stateMutability": "nonpayable",
      "type": "function"
    },
    {
      "inputs": [],
      "name": "name",
      "outputs": [
        {
          "internalType": "string",
          "name": "",
          "type": "string"
        }
      ],
      "stateMutability": "view",
      "type": "function"
    },
    {
      "inputs": [],
      "name": "owner",
      "outputs": [
        {
          "internalType": "address",
          "name": "",
          "type": "address"
        }
      ],
      "stateMutability": "view",
      "type": "function"
    },
    {
      "inputs": [
        {
          "internalType": "uint256",
          "name": "tokenId",
          "type": "uint256"
        }
      ],
      "name": "ownerOf",
      "outputs": [
        {
          "internalType": "address",
          "name": "",
          "type": "address"
        }
      ],
      "stateMutability": "view",
      "type": "function"
    },
    {
      "inputs": [],
      "name": "renounceOwnership",
      "outputs": [],
      "stateMutability": "nonpayable",
      "type": "function"
    },
    {
      "inputs": [
        {
          "internalType": "uint256",
          "name": "tokenId",
          "type": "uint256"
        }
      ],
      "name": "revokeAllAuthorizations",
      "outputs": [],
      "stateMutability": "nonpayable",
      "type": "function"
    },
    {
      "inputs": [
        {
          "internalType": "uint256",
          "name": "tokenId",
          "type": "uint256"
        },
        {
          "internalType": "address",
          "name": "slotManagerAddr",
          "type": "address"
        }
      ],
      "name": "revokeAuthorization",
      "outputs": [],
      "stateMutability": "nonpayable",
      "type": "function"
    },
    {
      "inputs": [
        {
          "internalType": "address",
          "name": "from",
          "type": "address"
        },
        {
          "internalType": "address",
          "name": "to",
          "type": "address"
        },
        {
          "internalType": "uint256",
          "name": "tokenId",
          "type": "uint256"
        }
      ],
      "name": "safeTransferFrom",
      "outputs": [],
      "stateMutability": "nonpayable",
      "type": "function"
    },
    {
      "inputs": [
        {
          "internalType": "address",
          "name": "from",
          "type": "address"
        },
        {
          "internalType": "address",
          "name": "to",
          "type": "address"
        },
        {
          "internalType": "uint256",
          "name": "tokenId",
          "type": "uint256"
        },
        {
          "internalType": "bytes",
          "name": "_data",
          "type": "bytes"
        }
      ],
      "name": "safeTransferFrom",
      "outputs": [],
      "stateMutability": "nonpayable",
      "type": "function"
    },
    {
      "inputs": [
        {
          "internalType": "address",
          "name": "operator",
          "type": "address"
        },
        {
          "internalType": "bool",
          "name": "approved",
          "type": "bool"
        }
      ],
      "name": "setApprovalForAll",
      "outputs": [],
      "stateMutability": "nonpayable",
      "type": "function"
    },
    {
      "inputs": [
        {
          "internalType": "uint256",
          "name": "tokenId",
          "type": "uint256"
        },
        {
          "internalType": "string",
          "name": "uri",
          "type": "string"
        }
      ],
      "name": "setImageURI",
      "outputs": [],
      "stateMutability": "nonpayable",
      "type": "function"
    },
    {
      "inputs": [
        {
          "internalType": "uint256",
          "name": "tokenId",
          "type": "uint256"
        },
        {
          "internalType": "string",
          "name": "value",
          "type": "string"
        }
      ],
      "name": "setSlotUri",
      "outputs": [],
      "stateMutability": "nonpayable",
      "type": "function"
    },
    {
      "inputs": [
        {
          "internalType": "bytes4",
          "name": "interfaceId",
          "type": "bytes4"
        }
      ],
      "name": "supportsInterface",
      "outputs": [
        {
          "internalType": "bool",
          "name": "",
          "type": "bool"
        }
      ],
      "stateMutability": "view",
      "type": "function"
    },
    {
      "inputs": [],
      "name": "symbol",
      "outputs": [
        {
          "internalType": "string",
          "name": "",
          "type": "string"
        }
      ],
      "stateMutability": "view",
      "type": "function"
    },
    {
      "inputs": [
        {
          "internalType": "uint256",
          "name": "index",
          "type": "uint256"
        }
      ],
      "name": "tokenByIndex",
      "outputs": [
        {
          "internalType": "uint256",
          "name": "",
          "type": "uint256"
        }
      ],
      "stateMutability": "view",
      "type": "function"
    },
    {
      "inputs": [
        {
          "internalType": "address",
          "name": "owner",
          "type": "address"
        },
        {
          "internalType": "uint256",
          "name": "index",
          "type": "uint256"
        }
      ],
      "name": "tokenOfOwnerByIndex",
      "outputs": [
        {
          "internalType": "uint256",
          "name": "",
          "type": "uint256"
        }
      ],
      "stateMutability": "view",
      "type": "function"
    },
    {
      "inputs": [
        {
          "internalType": "uint256",
          "name": "_tokenId",
          "type": "uint256"
        }
      ],
      "name": "tokenURI",
      "outputs": [
        {
          "internalType": "string",
          "name": "",
          "type": "string"
        }
      ],
      "stateMutability": "view",
      "type": "function"
    },
    {
      "inputs": [],
      "name": "totalSupply",
      "outputs": [
        {
          "internalType": "uint256",
          "name": "",
          "type": "uint256"
        }
      ],
      "stateMutability": "view",
      "type": "function"
    },
    {
      "inputs": [
        {
          "internalType": "address",
          "name": "from",
          "type": "address"
        },
        {
          "internalType": "address",
          "name": "to",
          "type": "address"
        },
        {
          "internalType": "uint256",
          "name": "tokenId",
          "type": "uint256"
        }
      ],
      "name": "transferFrom",
      "outputs": [],
      "stateMutability": "nonpayable",
      "type": "function"
    },
    {
      "inputs": [
        {
          "internalType": "address",
          "name": "newOwner",
          "type": "address"
        }
      ],
      "name": "transferOwnership",
      "outputs": [],
      "stateMutability": "nonpayable",
      "type": "function"
    }
  ],
  "bytecode": "0x60806040523480156200001157600080fd5b50604080518082018252601881527f48797065726c696e6b204e465420436f6c6c656374696f6e00000000000000006020808301918252835180850190945260048452631213919560e21b908401528151919291620000739160009162000102565b5080516200008990600190602084019062000102565b505050620000a6620000a0620000ac60201b60201c565b620000b0565b620001e5565b3390565b600a80546001600160a01b038381166001600160a01b0319831681179093556040519116919082907f8be0079c531659141344cd1fd0a4f28419497f9722a3daafe3b4186f6b6457e090600090a35050565b8280546200011090620001a8565b90600052602060002090601f0160209004810192826200013457600085556200017f565b82601f106200014f57805160ff19168380011785556200017f565b828001600101855582156200017f579182015b828111156200017f57825182559160200191906001019062000162565b506200018d92915062000191565b5090565b5b808211156200018d576000815560010162000192565b600181811c90821680620001bd57607f821691505b60208210811415620001df57634e487b7160e01b600052602260045260246000fd5b50919050565b61392680620001f56000396000f3fe608060405234801561001057600080fd5b50600436106101cf5760003560e01c8063715018a611610104578063c87b56dd116100a2578063d85d3d2711610071578063d85d3d27146103ee578063e985e9c514610401578063ec9fca0c1461044a578063f2fde38b1461045d57600080fd5b8063c87b56dd146103a2578063cf367f84146103b5578063cfc3ac92146103c8578063d0ade91b146103db57600080fd5b806395d89b41116100de57806395d89b4114610361578063a22cb46514610369578063b88d4fde1461037c578063c3612ef71461038f57600080fd5b8063715018a61461031b578063715dbaf2146103235780638da5cb5b1461034357600080fd5b806323b872dd116101715780634f6ccce71161014b5780634f6ccce7146102cf578063543e41c9146102e25780636352211e146102f557806370a082311461030857600080fd5b806323b872dd146102965780632f745c59146102a957806342842e0e146102bc57600080fd5b80630754b2cc116101ad5780630754b2cc14610226578063081812fc14610239578063095ea7b31461027157806318160ddd1461028457600080fd5b806301ffc9a7146101d4578063029624e0146101fc57806306fdde0314610211575b600080fd5b6101e76101e236600461311f565b610470565b60405190151581526020015b60405180910390f35b61020f61020a366004613223565b6104cc565b005b61021961058f565b6040516101f39190613618565b610219610234366004613201565b610621565b61024c6102473660046131e9565b6106e5565b60405173ffffffffffffffffffffffffffffffffffffffff90911681526020016101f3565b61020f61027f3660046130f6565b6107bf565b6008545b6040519081526020016101f3565b61020f6102a4366004612f8e565b61094c565b6102886102b73660046130f6565b6109ed565b61020f6102ca366004612f8e565b610abc565b6102886102dd3660046131e9565b610ad7565b61020f6102f03660046131e9565b610bbc565b61024c6103033660046131e9565b610e33565b610288610316366004612f42565b610ee5565b61020f610fb3565b6103366103313660046131e9565b611040565b6040516101f391906135be565b600a5473ffffffffffffffffffffffffffffffffffffffff1661024c565b61021961105a565b61020f6103773660046130bc565b611069565b61020f61038a366004612fc9565b611074565b61020f61039d366004613201565b61111c565b6102196103b03660046131e9565b611256565b6101e76103c3366004613201565b611388565b61020f6103d6366004613201565b6113a7565b61020f6103e9366004613223565b6114ce565b61020f6103fc366004613157565b6115f2565b6101e761040f366004612f5c565b73ffffffffffffffffffffffffffffffffffffffff918216600090815260056020908152604080832093909416825291909152205460ff1690565b61020f610458366004613197565b611615565b61020f61046b366004612f42565b611642565b60007fffffffff0000000000000000000000000000000000000000000000000000000082167f780e9d630000000000000000000000000000000000000000000000000000000014806104c657506104c682611772565b92915050565b826104d681610e33565b73ffffffffffffffffffffffffffffffffffffffff163373ffffffffffffffffffffffffffffffffffffffff161461056f576040517f08c379a000000000000000000000000000000000000000000000000000000000815260206004820152601960248201527f73686f756c642062652074686520746f6b656e206f776e65720000000000000060448201526064015b60405180910390fd5b6000848152600d60205260409020610588908484612de5565b5050505050565b60606000805461059e9061377d565b80601f01602080910402602001604051908101604052809291908181526020018280546105ca9061377d565b80156106175780601f106105ec57610100808354040283529160200191610617565b820191906000526020600020905b8154815290600101906020018083116105fa57829003601f168201915b5050505050905090565b6000828152600c6020908152604080832073ffffffffffffffffffffffffffffffffffffffff85168452909152902080546060919061065f9061377d565b80601f016020809104026020016040519081016040528092919081815260200182805461068b9061377d565b80156106d85780601f106106ad576101008083540402835291602001916106d8565b820191906000526020600020905b8154815290600101906020018083116106bb57829003601f168201915b5050505050905092915050565b60008181526002602052604081205473ffffffffffffffffffffffffffffffffffffffff16610796576040517f08c379a000000000000000000000000000000000000000000000000000000000815260206004820152602c60248201527f4552433732313a20617070726f76656420717565727920666f72206e6f6e657860448201527f697374656e7420746f6b656e00000000000000000000000000000000000000006064820152608401610566565b5060009081526004602052604090205473ffffffffffffffffffffffffffffffffffffffff1690565b60006107ca82610e33565b90508073ffffffffffffffffffffffffffffffffffffffff168373ffffffffffffffffffffffffffffffffffffffff161415610888576040517f08c379a000000000000000000000000000000000000000000000000000000000815260206004820152602160248201527f4552433732313a20617070726f76616c20746f2063757272656e74206f776e6560448201527f72000000000000000000000000000000000000000000000000000000000000006064820152608401610566565b3373ffffffffffffffffffffffffffffffffffffffff821614806108b157506108b1813361040f565b61093d576040517f08c379a000000000000000000000000000000000000000000000000000000000815260206004820152603860248201527f4552433732313a20617070726f76652063616c6c6572206973206e6f74206f7760448201527f6e6572206e6f7220617070726f76656420666f7220616c6c00000000000000006064820152608401610566565b6109478383611855565b505050565b61095633826118f5565b6109e2576040517f08c379a000000000000000000000000000000000000000000000000000000000815260206004820152603160248201527f4552433732313a207472616e736665722063616c6c6572206973206e6f74206f60448201527f776e6572206e6f7220617070726f7665640000000000000000000000000000006064820152608401610566565b610947838383611a65565b60006109f883610ee5565b8210610a86576040517f08c379a000000000000000000000000000000000000000000000000000000000815260206004820152602b60248201527f455243373231456e756d657261626c653a206f776e657220696e646578206f7560448201527f74206f6620626f756e64730000000000000000000000000000000000000000006064820152608401610566565b5073ffffffffffffffffffffffffffffffffffffffff919091166000908152600660209081526040808320938352929052205490565b61094783838360405180602001604052806000815250611074565b6000610ae260085490565b8210610b70576040517f08c379a000000000000000000000000000000000000000000000000000000000815260206004820152602c60248201527f455243373231456e756d657261626c653a20676c6f62616c20696e646578206f60448201527f7574206f6620626f756e647300000000000000000000000000000000000000006064820152608401610566565b60088281548110610baa577f4e487b7100000000000000000000000000000000000000000000000000000000600052603260045260246000fd5b90600052602060002001549050919050565b80610bc681610e33565b73ffffffffffffffffffffffffffffffffffffffff163373ffffffffffffffffffffffffffffffffffffffff1614610c5a576040517f08c379a000000000000000000000000000000000000000000000000000000000815260206004820152601960248201527f73686f756c642062652074686520746f6b656e206f776e6572000000000000006044820152606401610566565b6000828152600b60205260408120600190610c7490611cd7565b610c7e9190613705565b90505b8015610d54576000838152600b60205260408120610c9f9083611ce1565b6000858152600b60205260409020909150610cba9082611ced565b506000848152600c6020908152604080832073ffffffffffffffffffffffffffffffffffffffff851684529091528120610cf391612e87565b6040805185815273ffffffffffffffffffffffffffffffffffffffff831660208201527fb5941f6e357083b6bcaa8e6b7ae8cc1fe09249dd08844a1b6d621170d58c69e4910160405180910390a15080610d4c81613748565b915050610c81565b506000828152600b60205260408120610d6c90611cd7565b1115610e2f576000828152600b60205260408120610d8a9082611ce1565b6000848152600b60205260409020909150610da59082611ced565b506000838152600c6020908152604080832073ffffffffffffffffffffffffffffffffffffffff851684529091528120610dde91612e87565b6040805184815273ffffffffffffffffffffffffffffffffffffffff831660208201527fb5941f6e357083b6bcaa8e6b7ae8cc1fe09249dd08844a1b6d621170d58c69e491015b60405180910390a1505b5050565b60008181526002602052604081205473ffffffffffffffffffffffffffffffffffffffff16806104c6576040517f08c379a000000000000000000000000000000000000000000000000000000000815260206004820152602960248201527f4552433732313a206f776e657220717565727920666f72206e6f6e657869737460448201527f656e7420746f6b656e00000000000000000000000000000000000000000000006064820152608401610566565b600073ffffffffffffffffffffffffffffffffffffffff8216610f8a576040517f08c379a000000000000000000000000000000000000000000000000000000000815260206004820152602a60248201527f4552433732313a2062616c616e636520717565727920666f7220746865207a6560448201527f726f2061646472657373000000000000000000000000000000000000000000006064820152608401610566565b5073ffffffffffffffffffffffffffffffffffffffff1660009081526003602052604090205490565b600a5473ffffffffffffffffffffffffffffffffffffffff163314611034576040517f08c379a000000000000000000000000000000000000000000000000000000000815260206004820181905260248201527f4f776e61626c653a2063616c6c6572206973206e6f7420746865206f776e65726044820152606401610566565b61103e6000611d0f565b565b6000818152600b602052604090206060906104c690611d86565b60606001805461059e9061377d565b610e2f338383611d93565b61107e33836118f5565b61110a576040517f08c379a000000000000000000000000000000000000000000000000000000000815260206004820152603160248201527f4552433732313a207472616e736665722063616c6c6572206973206e6f74206f60448201527f776e6572206e6f7220617070726f7665640000000000000000000000000000006064820152608401610566565b61111684848484611ec1565b50505050565b8161112681610e33565b73ffffffffffffffffffffffffffffffffffffffff163373ffffffffffffffffffffffffffffffffffffffff16146111ba576040517f08c379a000000000000000000000000000000000000000000000000000000000815260206004820152601960248201527f73686f756c642062652074686520746f6b656e206f776e6572000000000000006044820152606401610566565b6000838152600b602052604090206111d29083611ced565b506000838152600c6020908152604080832073ffffffffffffffffffffffffffffffffffffffff86168452909152812061120b91612e87565b6040805184815273ffffffffffffffffffffffffffffffffffffffff841660208201527fb5941f6e357083b6bcaa8e6b7ae8cc1fe09249dd08844a1b6d621170d58c69e49101610e25565b60008181526002602052604090205460609073ffffffffffffffffffffffffffffffffffffffff166112e4576040517f08c379a000000000000000000000000000000000000000000000000000000000815260206004820152601f60248201527f55524920717565727920666f72206e6f6e6578697374656e7420746f6b656e006044820152606401610566565b611362600f6112f284611f64565b604051602001611303929190613386565b604080517fffffffffffffffffffffffffffffffffffffffffffffffffffffffffffffffe08184030181528282526000868152600d602090815292902061134e9391929091016133d4565b6040516020818303038152906040526120e4565b6040516020016113729190613530565b6040516020818303038152906040529050919050565b6000828152600b602052604081206113a090836122e6565b9392505050565b816113b181610e33565b73ffffffffffffffffffffffffffffffffffffffff163373ffffffffffffffffffffffffffffffffffffffff1614611445576040517f08c379a000000000000000000000000000000000000000000000000000000000815260206004820152601960248201527f73686f756c642062652074686520746f6b656e206f776e6572000000000000006044820152606401610566565b6000838152600b6020526040902061145d90836122e6565b156114c4576040517f08c379a000000000000000000000000000000000000000000000000000000000815260206004820152601a60248201527f6164647265737320616c726561647920617574686f72697a65640000000000006044820152606401610566565b6109478383612315565b826114d881610e33565b73ffffffffffffffffffffffffffffffffffffffff163373ffffffffffffffffffffffffffffffffffffffff1614806115245750611524336000838152600b60205260409020906122e6565b61158a576040517f08c379a000000000000000000000000000000000000000000000000000000000815260206004820152601c60248201527f616464726573732073686f756c6420626520617574686f72697a6564000000006044820152606401610566565b6000848152600c6020908152604080832033845290915290206115ae908484612de5565b507f3861e85a43f9ffebd047ed00860b7c5e4248d52895f611df7877c826ce5d2290843385856040516115e4949392919061362b565b60405180910390a150505050565b60006115fd60085490565b61160890600161369c565b9050610947818484612380565b600061162060085490565b61162b90600161369c565b9050611638818585612380565b6111168183612315565b600a5473ffffffffffffffffffffffffffffffffffffffff1633146116c3576040517f08c379a000000000000000000000000000000000000000000000000000000000815260206004820181905260248201527f4f776e61626c653a2063616c6c6572206973206e6f7420746865206f776e65726044820152606401610566565b73ffffffffffffffffffffffffffffffffffffffff8116611766576040517f08c379a000000000000000000000000000000000000000000000000000000000815260206004820152602660248201527f4f776e61626c653a206e6577206f776e657220697320746865207a65726f206160448201527f64647265737300000000000000000000000000000000000000000000000000006064820152608401610566565b61176f81611d0f565b50565b60007fffffffff0000000000000000000000000000000000000000000000000000000082167f80ac58cd00000000000000000000000000000000000000000000000000000000148061180557507fffffffff0000000000000000000000000000000000000000000000000000000082167f5b5e139f00000000000000000000000000000000000000000000000000000000145b806104c657507f01ffc9a7000000000000000000000000000000000000000000000000000000007fffffffff000000000000000000000000000000000000000000000000000000008316146104c6565b600081815260046020526040902080547fffffffffffffffffffffffff00000000000000000000000000000000000000001673ffffffffffffffffffffffffffffffffffffffff841690811790915581906118af82610e33565b73ffffffffffffffffffffffffffffffffffffffff167f8c5be1e5ebec7d5bd14f71427d1e84f3dd0314c0f7b2291e5b200ac8c7c3b92560405160405180910390a45050565b60008181526002602052604081205473ffffffffffffffffffffffffffffffffffffffff166119a6576040517f08c379a000000000000000000000000000000000000000000000000000000000815260206004820152602c60248201527f4552433732313a206f70657261746f7220717565727920666f72206e6f6e657860448201527f697374656e7420746f6b656e00000000000000000000000000000000000000006064820152608401610566565b60006119b183610e33565b90508073ffffffffffffffffffffffffffffffffffffffff168473ffffffffffffffffffffffffffffffffffffffff161480611a2057508373ffffffffffffffffffffffffffffffffffffffff16611a08846106e5565b73ffffffffffffffffffffffffffffffffffffffff16145b80611a5d575073ffffffffffffffffffffffffffffffffffffffff80821660009081526005602090815260408083209388168352929052205460ff165b949350505050565b8273ffffffffffffffffffffffffffffffffffffffff16611a8582610e33565b73ffffffffffffffffffffffffffffffffffffffff1614611b28576040517f08c379a000000000000000000000000000000000000000000000000000000000815260206004820152602560248201527f4552433732313a207472616e736665722066726f6d20696e636f72726563742060448201527f6f776e65720000000000000000000000000000000000000000000000000000006064820152608401610566565b73ffffffffffffffffffffffffffffffffffffffff8216611bca576040517f08c379a0000000000000000000000000000000000000000000000000000000008152602060048201526024808201527f4552433732313a207472616e7366657220746f20746865207a65726f2061646460448201527f72657373000000000000000000000000000000000000000000000000000000006064820152608401610566565b611bd58383836123a3565b611be0600082611855565b73ffffffffffffffffffffffffffffffffffffffff83166000908152600360205260408120805460019290611c16908490613705565b909155505073ffffffffffffffffffffffffffffffffffffffff82166000908152600360205260408120805460019290611c5190849061369c565b909155505060008181526002602052604080822080547fffffffffffffffffffffffff00000000000000000000000000000000000000001673ffffffffffffffffffffffffffffffffffffffff86811691821790925591518493918716917fddf252ad1be2c89b69c2b068fc378daa952ba7f163c4a11628f55a4df523b3ef91a4505050565b60006104c6825490565b60006113a083836124a9565b60006113a08373ffffffffffffffffffffffffffffffffffffffff84166124fa565b600a805473ffffffffffffffffffffffffffffffffffffffff8381167fffffffffffffffffffffffff0000000000000000000000000000000000000000831681179093556040519116919082907f8be0079c531659141344cd1fd0a4f28419497f9722a3daafe3b4186f6b6457e090600090a35050565b606060006113a083612662565b8173ffffffffffffffffffffffffffffffffffffffff168373ffffffffffffffffffffffffffffffffffffffff161415611e29576040517f08c379a000000000000000000000000000000000000000000000000000000000815260206004820152601960248201527f4552433732313a20617070726f766520746f2063616c6c6572000000000000006044820152606401610566565b73ffffffffffffffffffffffffffffffffffffffff83811660008181526005602090815260408083209487168084529482529182902080547fffffffffffffffffffffffffffffffffffffffffffffffffffffffffffffff001686151590811790915591519182527f17307eab39ab6107e8899845ad3d59bd9653f200f220920489ca2b5937696c31910160405180910390a3505050565b611ecc848484611a65565b611ed8848484846126be565b611116576040517f08c379a000000000000000000000000000000000000000000000000000000000815260206004820152603260248201527f4552433732313a207472616e7366657220746f206e6f6e20455243373231526560448201527f63656976657220696d706c656d656e74657200000000000000000000000000006064820152608401610566565b606081611fa457505060408051808201909152600181527f3000000000000000000000000000000000000000000000000000000000000000602082015290565b8160005b8115611fce5780611fb8816137d1565b9150611fc79050600a836136b4565b9150611fa8565b60008167ffffffffffffffff811115612010577f4e487b7100000000000000000000000000000000000000000000000000000000600052604160045260246000fd5b6040519080825280601f01601f19166020018201604052801561203a576020820181803683370190505b5090505b8415611a5d5761204f600183613705565b915061205c600a8661380a565b61206790603061369c565b60f81b8183815181106120a3577f4e487b7100000000000000000000000000000000000000000000000000000000600052603260045260246000fd5b60200101907effffffffffffffffffffffffffffffffffffffffffffffffffffffffffffff1916908160001a9053506120dd600a866136b4565b945061203e565b606081516000141561210457505060408051602081019091526000815290565b60006040518060600160405280604081526020016138da6040913990506000600384516002612133919061369c565b61213d91906136b4565b6121489060046136c8565b9050600061215782602061369c565b67ffffffffffffffff811115612196577f4e487b7100000000000000000000000000000000000000000000000000000000600052604160045260246000fd5b6040519080825280601f01601f1916602001820160405280156121c0576020820181803683370190505b509050818152600183018586518101602084015b8183101561222e5760039283018051603f601282901c811687015160f890811b8552600c83901c8216880151811b6001860152600683901c8216880151811b60028601529116860151901b938201939093526004016121d4565b6003895106600181146122485760028114612292576122d8565b7f3d3d0000000000000000000000000000000000000000000000000000000000007ffffffffffffffffffffffffffffffffffffffffffffffffffffffffffffffffe8301526122d8565b7f3d000000000000000000000000000000000000000000000000000000000000007fffffffffffffffffffffffffffffffffffffffffffffffffffffffffffffffff8301525b509398975050505050505050565b73ffffffffffffffffffffffffffffffffffffffff8116600090815260018301602052604081205415156113a0565b6000828152600b6020526040902061232d90826128bd565b506040805183815273ffffffffffffffffffffffffffffffffffffffff831660208201527fb6aac9d4aca74cc3c9b6f10668821ed9e7c5736feeb673bbbbd8b295ba2c5936910160405180910390a15050565b61238a33846128df565b6000838152600d60205260409020611116908383612de5565b73ffffffffffffffffffffffffffffffffffffffff831661240b5761240681600880546000838152600960205260408120829055600182018355919091527ff3f7a9fe364faab93b216da50a3214154f22a0a2b415b23a84c8169e8b636ee30155565b612448565b8173ffffffffffffffffffffffffffffffffffffffff168373ffffffffffffffffffffffffffffffffffffffff16146124485761244883826128f9565b73ffffffffffffffffffffffffffffffffffffffff821661246c57610947816129b0565b8273ffffffffffffffffffffffffffffffffffffffff168273ffffffffffffffffffffffffffffffffffffffff1614610947576109478282612ad4565b60008260000182815481106124e7577f4e487b7100000000000000000000000000000000000000000000000000000000600052603260045260246000fd5b9060005260206000200154905092915050565b6000818152600183016020526040812054801561265857600061251e600183613705565b855490915060009061253290600190613705565b90508181146125e5576000866000018281548110612579577f4e487b7100000000000000000000000000000000000000000000000000000000600052603260045260246000fd5b90600052602060002001549050808760000184815481106125c3577f4e487b7100000000000000000000000000000000000000000000000000000000600052603260045260246000fd5b6000918252602080832090910192909255918252600188019052604090208390555b855486908061261d577f4e487b7100000000000000000000000000000000000000000000000000000000600052603160045260246000fd5b6001900381819060005260206000200160009055905585600101600086815260200190815260200160002060009055600193505050506104c6565b60009150506104c6565b6060816000018054806020026020016040519081016040528092919081815260200182805480156126b257602002820191906000526020600020905b81548152602001906001019080831161269e575b50505050509050919050565b600073ffffffffffffffffffffffffffffffffffffffff84163b156128b2576040517f150b7a0200000000000000000000000000000000000000000000000000000000815273ffffffffffffffffffffffffffffffffffffffff85169063150b7a0290612735903390899088908890600401613575565b602060405180830381600087803b15801561274f57600080fd5b505af192505050801561279d575060408051601f3d9081017fffffffffffffffffffffffffffffffffffffffffffffffffffffffffffffffe016820190925261279a9181019061313b565b60015b612867573d8080156127cb576040519150601f19603f3d011682016040523d82523d6000602084013e6127d0565b606091505b50805161285f576040517f08c379a000000000000000000000000000000000000000000000000000000000815260206004820152603260248201527f4552433732313a207472616e7366657220746f206e6f6e20455243373231526560448201527f63656976657220696d706c656d656e74657200000000000000000000000000006064820152608401610566565b805181602001fd5b7fffffffff00000000000000000000000000000000000000000000000000000000167f150b7a0200000000000000000000000000000000000000000000000000000000149050611a5d565b506001949350505050565b60006113a08373ffffffffffffffffffffffffffffffffffffffff8416612b25565b610e2f828260405180602001604052806000815250612b74565b6000600161290684610ee5565b6129109190613705565b6000838152600760205260409020549091508082146129705773ffffffffffffffffffffffffffffffffffffffff841660009081526006602090815260408083208584528252808320548484528184208190558352600790915290208190555b50600091825260076020908152604080842084905573ffffffffffffffffffffffffffffffffffffffff9094168352600681528383209183525290812055565b6008546000906129c290600190613705565b60008381526009602052604081205460088054939450909284908110612a11577f4e487b7100000000000000000000000000000000000000000000000000000000600052603260045260246000fd5b906000526020600020015490508060088381548110612a59577f4e487b7100000000000000000000000000000000000000000000000000000000600052603260045260246000fd5b6000918252602080832090910192909255828152600990915260408082208490558582528120556008805480612ab8577f4e487b7100000000000000000000000000000000000000000000000000000000600052603160045260246000fd5b6001900381819060005260206000200160009055905550505050565b6000612adf83610ee5565b73ffffffffffffffffffffffffffffffffffffffff9093166000908152600660209081526040808320868452825280832085905593825260079052919091209190915550565b6000818152600183016020526040812054612b6c575081546001818101845560008481526020808220909301849055845484825282860190935260409020919091556104c6565b5060006104c6565b612b7e8383612c17565b612b8b60008484846126be565b610947576040517f08c379a000000000000000000000000000000000000000000000000000000000815260206004820152603260248201527f4552433732313a207472616e7366657220746f206e6f6e20455243373231526560448201527f63656976657220696d706c656d656e74657200000000000000000000000000006064820152608401610566565b73ffffffffffffffffffffffffffffffffffffffff8216612c94576040517f08c379a000000000000000000000000000000000000000000000000000000000815260206004820181905260248201527f4552433732313a206d696e7420746f20746865207a65726f20616464726573736044820152606401610566565b60008181526002602052604090205473ffffffffffffffffffffffffffffffffffffffff1615612d20576040517f08c379a000000000000000000000000000000000000000000000000000000000815260206004820152601c60248201527f4552433732313a20746f6b656e20616c7265616479206d696e746564000000006044820152606401610566565b612d2c600083836123a3565b73ffffffffffffffffffffffffffffffffffffffff82166000908152600360205260408120805460019290612d6290849061369c565b909155505060008181526002602052604080822080547fffffffffffffffffffffffff00000000000000000000000000000000000000001673ffffffffffffffffffffffffffffffffffffffff861690811790915590518392907fddf252ad1be2c89b69c2b068fc378daa952ba7f163c4a11628f55a4df523b3ef908290a45050565b828054612df19061377d565b90600052602060002090601f016020900481019282612e135760008555612e77565b82601f10612e4a578280017fffffffffffffffffffffffffffffffffffffffffffffffffffffffffffffff00823516178555612e77565b82800160010185558215612e77579182015b82811115612e77578235825591602001919060010190612e5c565b50612e83929150612ebd565b5090565b508054612e939061377d565b6000825580601f10612ea3575050565b601f01602090049060005260206000209081019061176f91905b5b80821115612e835760008155600101612ebe565b803573ffffffffffffffffffffffffffffffffffffffff81168114612ef657600080fd5b919050565b60008083601f840112612f0c578182fd5b50813567ffffffffffffffff811115612f23578182fd5b602083019150836020828501011115612f3b57600080fd5b9250929050565b600060208284031215612f53578081fd5b6113a082612ed2565b60008060408385031215612f6e578081fd5b612f7783612ed2565b9150612f8560208401612ed2565b90509250929050565b600080600060608486031215612fa2578081fd5b612fab84612ed2565b9250612fb960208501612ed2565b9150604084013590509250925092565b60008060008060808587031215612fde578081fd5b612fe785612ed2565b9350612ff560208601612ed2565b925060408501359150606085013567ffffffffffffffff80821115613018578283fd5b818701915087601f83011261302b578283fd5b81358181111561303d5761303d61387c565b604051601f82017fffffffffffffffffffffffffffffffffffffffffffffffffffffffffffffffe0908116603f011681019083821181831017156130835761308361387c565b816040528281528a602084870101111561309b578586fd5b82602086016020830137918201602001949094529598949750929550505050565b600080604083850312156130ce578182fd5b6130d783612ed2565b9150602083013580151581146130eb578182fd5b809150509250929050565b60008060408385031215613108578182fd5b61311183612ed2565b946020939093013593505050565b600060208284031215613130578081fd5b81356113a0816138ab565b60006020828403121561314c578081fd5b81516113a0816138ab565b60008060208385031215613169578182fd5b823567ffffffffffffffff81111561317f578283fd5b61318b85828601612efb565b90969095509350505050565b6000806000604084860312156131ab578283fd5b833567ffffffffffffffff8111156131c1578384fd5b6131cd86828701612efb565b90945092506131e0905060208501612ed2565b90509250925092565b6000602082840312156131fa578081fd5b5035919050565b60008060408385031215613213578182fd5b82359150612f8560208401612ed2565b600080600060408486031215613237578283fd5b83359250602084013567ffffffffffffffff811115613254578283fd5b61326086828701612efb565b9497909650939450505050565b6000815180845261328581602086016020860161371c565b601f017fffffffffffffffffffffffffffffffffffffffffffffffffffffffffffffffe0169290920160200192915050565b8054600090600181811c90808316806132d157607f831692505b602080841082141561330a577f4e487b710000000000000000000000000000000000000000000000000000000086526022600452602486fd5b81801561331e576001811461334d5761337a565b7fffffffffffffffffffffffffffffffffffffffffffffffffffffffffffffff0086168952848901965061337a565b60008881526020902060005b868110156133725781548b820152908501908301613359565b505084890196505b50505050505092915050565b600061339282856132b7565b7f2023200000000000000000000000000000000000000000000000000000000000815283516133c881600384016020880161371c565b01600301949350505050565b7f7b226e616d65223a22000000000000000000000000000000000000000000000081526000835161340c81600985016020880161371c565b7f222c0000000000000000000000000000000000000000000000000000000000006009918401918201527f226465736372697074696f6e223a2248797065726c696e6b204e465420636f6c600b8201527f6c656374696f6e2063726561746564207769746820506172616d6920466f756e602b8201527f646174696f6e2200000000000000000000000000000000000000000000000000604b8201527f2c0000000000000000000000000000000000000000000000000000000000000060528201527f22696d616765223a2200000000000000000000000000000000000000000000006053820152613501605c8201856132b7565b7f227d000000000000000000000000000000000000000000000000000000000000815260020195945050505050565b7f646174613a6170706c69636174696f6e2f6a736f6e3b6261736536342c00000081526000825161356881601d85016020870161371c565b91909101601d0192915050565b600073ffffffffffffffffffffffffffffffffffffffff8087168352808616602084015250836040830152608060608301526135b4608083018461326d565b9695505050505050565b6020808252825182820181905260009190848201906040850190845b8181101561360c57835173ffffffffffffffffffffffffffffffffffffffff16835292840192918401916001016135da565b50909695505050505050565b6020815260006113a0602083018461326d565b84815273ffffffffffffffffffffffffffffffffffffffff8416602082015260606040820152816060820152818360808301376000818301608090810191909152601f9092017fffffffffffffffffffffffffffffffffffffffffffffffffffffffffffffffe01601019392505050565b600082198211156136af576136af61381e565b500190565b6000826136c3576136c361384d565b500490565b6000817fffffffffffffffffffffffffffffffffffffffffffffffffffffffffffffffff04831182151516156137005761370061381e565b500290565b6000828210156137175761371761381e565b500390565b60005b8381101561373757818101518382015260200161371f565b838111156111165750506000910152565b6000816137575761375761381e565b507fffffffffffffffffffffffffffffffffffffffffffffffffffffffffffffffff0190565b600181811c9082168061379157607f821691505b602082108114156137cb577f4e487b7100000000000000000000000000000000000000000000000000000000600052602260045260246000fd5b50919050565b60007fffffffffffffffffffffffffffffffffffffffffffffffffffffffffffffffff8214156138035761380361381e565b5060010190565b6000826138195761381961384d565b500690565b7f4e487b7100000000000000000000000000000000000000000000000000000000600052601160045260246000fd5b7f4e487b7100000000000000000000000000000000000000000000000000000000600052601260045260246000fd5b7f4e487b7100000000000000000000000000000000000000000000000000000000600052604160045260246000fd5b7fffffffff000000000000000000000000000000000000000000000000000000008116811461176f57600080fdfe4142434445464748494a4b4c4d4e4f505152535455565758595a6162636465666768696a6b6c6d6e6f707172737475767778797a303132333435363738392b2fa164736f6c6343000804000a",
  "linkReferences": {},
  "deployedLinkReferences": {}
}